S01700006275696C642F697269732F6D61696E2E7372656343
S11300000C9483010C94A2010C94A2010C94A201FF
S11300100C94A2010C94A2010C94A2010C94A201D0
S11300200C94A2010C94A2010C94A2010C94A201C0
S11300300C94A2010C94700E0C94A2010C94080967
S11300400C9403190C9439190C94BF090C94CA0923
S11300500C94D5090C94A2010C94A2010C94A20155
S11300600C941C090C94420C0C94A2010C94C50C25
S11300700C94A2010C94030A0C94A2010C941C0E7F
S11300800C94FB0D0C94060E0C94110E0C942F0E74
S11300900C94DE0D0C94A2010C94F00D0C94A201AE
S11300A00C94A2010C94A2010C94A2010C94A20140
S11300B00C94A2010C94A2010C94A2010C94A20130
S11300C00C94A2010C94A2010C94A201B72553260E
S11300D092265827C627C927D4270728FB285F2834
S11300E07328A82528293A29AF254C293D2A062B0F
S11300F0F32B132C392C1E2D462D482D532D8A2DD0
S113010000002110422063308440A550C660E7708F
S1130110088129914AA16BB18CC1ADD1CEE1EFF137
S11301203112100273325222B5529442F772D662DF
S1130130399318837BB35AA3BDD39CC3FFF3DEE387
S11301406224433420040114E664C774A44485542F
S11301506AA54BB528850995EEE5CFF5ACC58DD5D7
S11301605336722611163006D776F6669556B4467F
S11301705BB77AA719973887DFF7FEE79DD7BCC727
S1130180C448E5588668A7784008611802282338CF
S1130190CCC9EDD98EE9AFF9488969990AA92BB977
S11301A0F55AD44AB77A966A711A500A333A122A1F
S11301B0FDDBDCCBBFFB9EEB799B588B3BBB1AABC7
S11301C0A66C877CE44CC55C222C033C600C411C6F
S11301D0AEED8FFDECCDCDDD2AAD0BBD688D499D17
S11301E0977EB66ED55EF44E133E322E511E700EBF
S11301F09FFFBEEFDDDFFCCF1BBF3AAF599F788F67
S11302008891A981CAB1EBA10CD12DC14EF16FE146
S11302108010A100C230E32004502540467067607E
S1130220B9839893FBA3DAB33DC31CD37FE35EF396
S1130230B1029012F322D2323542145277625672CE
S1130240EAB5CBA5A89589856EF54FE52CD50DC5E6
S1130250E234C324A014810466744764245405441E
S1130260DBA7FAB79987B8975FE77EF71DC73CD736
S1130270D326F2369106B01657667676154634566E
S11302804CD96DC90EF92FE9C899E9898AB9ABA986
S11302904458654806782768C018E1088238A328BE
S11302A07DCB5CDB3FEB1EFBF98BD89BBBAB9ABBD6
S11302B0754A545A376A167AF10AD01AB32A923A0E
S11302C02EFD0FED6CDD4DCDAABD8BADE89DC98D26
S11302D0267C076C645C454CA23C832CE01CC10C5E
S11302E01FEF3EFF5DCF7CDF9BAFBABFD98FF89F76
S11302F0176E367E554E745E932EB23ED10EF01EAE
S113030000020E060C0411241FBECFEFD1E2DEBFA3
S1130310CDBF12E0A0E0B2E0E6E7F5E600E00BBFF7
S113032002C007900D92AA31B107D9F71CE0AAE1E7
S1130330B2E001C01D92A637B107E1F70E94DD2D9E
S11303400C94BA320C9400008FB7F894992708954E
S11303508FBF0895282F9FB7F894E82FFF27E555FE
S1130360FD4F80818F3F81F4E091520CE21771F4CC
S11303700BC020936D0904C0FF27E555FD4F208372
S11303802093520C20E007C025E005C080916D0940
S11303908F3F91F7EECF892F99278FBF822F99270F
S11303A00895882319F08CB5806402C08CB58F7BC6
S11303B08CBD0895882319F08CB5806802C08CB573
S11303C08F778CBD08950F931F9380E00E94D10115
S11303D00FB7F8941127229A2398219A209A8CB562
S11303E080618CBD80E00E94DA018CB5877F8CBD72
S11303F08CB58B7F8CBD81E00E94D1018DB581606D
S11304008DBD8CB58C7F8CBD0FBF1F910F9108954E
S1130410FB0121E030E002C0220F331F8A95E2F78E
S113042080AD822B80AF08958FB7F8942091660435
S1130430309167044091680450916904E09184000C
S1130440F0918500B09B08C02F5F3F4F4F4F5F4F27
S1130450E0918400F091850099278FBFC901772727
S113046066279F0144275527622B732B842B952BDA
S11304700895FC0182819927982F882721813327A9
S1130480822B932B25E0969587952A95E1F7817029
S113049090700895FC0140E050E082819927982FE4
S11304A0882721813327822B932B87749C7C81544A
S11304B0984811F441E050E0CA010895FC01878195
S11304C09927982F882726813327822B932B0895E9
S11304D0AC01EFB7F8942091840030918500C901F4
S11304E0841B950B03968617970720F0B9016D5F5F
S11304F07F4F02C0640F751F6115710511F461E02F
S113050070E061507040709389006093880082E0CD
S113051086BB80916F00826080936F008E2F992735
S11305208FBF08958093BB09882311F484E001C030
S113053081E080933C0383E00E94AA01089520E0B7
S113054030E0FC0181818770823011F421E030E0D9
S1130550C9010895CF93DF93EC010E9439028823E7
S1130560D1F0CE010E944A028823A9F0CE010E9454
S11305705E022FB7F8943327409102025091030290
S11305802FBF20E08417950709F021E081E0282798
S1130590822F992702C080E090E0DF91CF910895E7
S11305A0FB0121E030E002C0220F331F8A95E2F7FD
S11305B080AD822399270895FC0181859927982F7E
S11305C0882720853327822B932B0895EF92FF925F
S11305D00F931F937C018FB7F89499270091F90525
S11305E01091FA050F5E1E4F1093FA050093F9055A
S11305F0015111408FBF85E00E94AA01C801B701D3
S11306000E943A328A5D9E4F1F910F91FF90EF90A6
S113061008958091F6058A3021F480913E03843058
S113062021F081E080933202089586E10E94AA01BC
S11306301092320208952FB7F89433278093C6009E
S1130640E0ECF0E08081806480832FBF0895FC019A
S11306506115710519F481E090E008958091D0034B
S11306609091D103892B19F085E090E0089570935F
S11306705C0960935B09F093D103E093D00310927B
S11306807B0310927A0381E080937C038091C00005
S113069080648093C0008091C10080648093C10015
S11306A0808121E030E030937B0320937A030E9421
S11306B01B0380E090E008958FB7F8949927209168
S11306C043022E7F209343022EE72093C5028FBF5F
S11306D061E070E085EC92E00E9427039927089579
S11306E01F931FB7F8948091740A882341F484E11E
S11306F00E94AA01882319F481E08093740A812F4F
S113070099278FBF1F910895982F96959695969542
S1130710EEEDF4E0E90FF11D877021E030E002C056
S1130720220F331F8A95E2F7808182239927089547
S113073080918809882311F0813011F458E008C0B1
S1130740882329F0813019F02FE150E002C050E0F5
S11307502EE1622F7FB7F8948091DB028E7F809325
S1130760DB0280917C00982F9F71829586958695F7
S1130770837019F080E090E00CC040E03327892FAB
S113078099272817390709F041E081E04827842F89
S11307909927982F9170990F8091DB028178262FE9
S11307A02F71422F440F440F892B842B8093DB023B
S11307B0332720937C00583059F580916E0990912D
S11307C06F0921E08638920718F087E090E01FC097
S11307D0833C910518F086E090E019C081369105BC
S11307E018F085E090E013C08033910518F084E0A0
S11307F090E00DC08831910518F083E090E007C0C7
S11308000C9718F082E090E002C080E090E0582F4E
S11308105770887D852B886D992780937A00872F60
S113082099278FBF0895AC01EFE6F4E080E090E0F3
S11308309C01858180FF05C0808191818417950783
S113084041F0C90101963B968A30910589F72FEF53
S113085030E0C90108950E9413048F3F91F0992755
S11308602BE030E0829FF001839FF00D929FF00D0A
S11308701124E159FB4F858181FF03C08781908555
S113088008958FEF9FEF0895693218F080E090E0AB
S113089008950C9608956E5F0E944404009709F031
S11308A0029608950B960895FC01655F6083089590
S11308B00E9413048F3F19F481E090E00895282FDB
S11308C033278BE090E0289FF001299FF00D389F9B
S11308D0F00D1124E159FB4F85818860858380E008
S11308E090E008952F923F924F925F926F927F9281
S11308F08F929F92AF92BF92CF92DF92EF92FF922C
S11309000F931F93CF93DF93CDB7DEB729970FB61D
S1130910F894DEBF0FBECDBF6FB76983F894209003
S113092083033090840340908503509086036624AB
S1130930772488240EE4A02E13E8B12ECC24DD24E1
S1130940EE24FF2400E010E0222D332D442D552DFC
S1130950662D772D882D90E00E947E302A833B837C
S11309604C835D836E837F8388879987822E932E41
S1130970A42EB52E2401350100E20E947C31A22E62
S1130980B32EC42ED52EA3019201569547953795C3
S113099027952A0D3B1D4C1D5D1D57FF05C05F7734
S11309A02F5F3F4F4F4F5F4F209383033093840358
S11309B04093850350938603E9818E2F99278FBF37
S11309C0CA01B90129960FB6F894DEBF0FBECDBF98
S11309D0DF91CF911F910F91FF90EF90DF90CF9017
S11309E0BF90AF909F908F907F906F905F904F904B
S11309F03F902F900895EF920F931F93AE2D99E09F
S1130A00899FF0011124E152FB4F4083518362839B
S1130A1073830483158326833783A17080858E7F37
S1130A208A2B8260808787E00E94AA011F910F9120
S1130A30EF9008957FB7F8946091B2002091A602D8
S1130A403091A7024091A8025091A902B99B11C00C
S1130A508091B3009091B200280F311D411D511DAA
S1130A602F5F3F4F4F4F5F4F290F311D411D511DC8
S1130A7004C0260F311D411D511D872F99278FBF9B
S1130A80CA01B90108950F931F93CF93DF93EC012B
S1130A90892BE9F020915309309154098FEF2F3FAE
S1130AA03807A9F080919302813019F419821882D1
S1130AB00BC00091550910915609C9010E942B04DD
S1130AC0080F191F1983088380E090E002C081E0B9
S1130AD090E0DF91CF911F910F91089580912702AB
S1130AE0E82FFF27EE0FFF1FEF50F74F0190F08123
S1130AF0E02D20912902222351F08F5F8093270259
S1130B008D3011F410922702215020932902CF0135
S1130B100895AC01209115042C3018F081E090E088
S1130B20089580918803682F620F712D711DFB0158
S1130B306C30710508F03C97EE0FFF1FE250FA4F3E
S1130B40518340832F5F2093150480E090E0089543
S1130B50AC01209114042C3018F081E090E0089549
S1130B6080918A09682F620F712D711DFB016C3011
S1130B70710508F03C97EE0FFF1FEB5AF34F5183BA
S1130B8040832F5F2093140480E090E00895665F13
S1130B900E944404009709F00A960895FC0180819C
S1130BA08751992708958FB7F894992722B132E095
S1130BB0232722B98FBF0895FC0127813085C901FD
S1130BC0A3E0880F991FAA95E1F7820F931F860F60
S1130BD0971F6AE070E00E943A3270876783089535
S1130BE0FC0161859285662329F48AE0989FB0010F
S1130BF0112409C077278AE0989FC00111240E941C
S1130C004E3211861286CF010E94DC050895AF9200
S1130C10BF92CF92DF92EF92FF920F931F93F82E21
S1130C205A016B010E941A05AB01BC01EE24960126
S1130C3085018F2D0E94FB041F910F91FF90EF906F
S1130C40DF90CF90BF90AF90089580910B058D7F7A
S1130C5080930B05409118065091190660911A066D
S1130C6070911B0684E00E94070608950F931F935A
S1130C70982F1FB7F89480912102823099F58091C2
S1130C800A02891779F58091080220E030E08F3F4D
S1130C9011F421E030E0232BF1F49FEF90930A024A
S1130CA08F3F19F42FEF30E00DC0282F3327F901BF
S1130CB0E057FC4F8081809308028F3F11F490939A
S1130CC0090290832093920381E0809321028AE0B9
S1130CD00E94AA0105C08FEF80930A02109221029C
S1130CE001E001C000E0812F99278FBF1FB7F8945E
S1130CF080912102882311F40E94D101812F992728
S1130D008FBF90E0013009F491E081E09827892FAA
S1130D1099271F910F910895AC013091A4028FEF90
S1130D204F3F580711F020E012C0832F99270895F0
S1130D30E22FFF27B3E0EE0FFF1FBA95E1F7ED5165
S1130D40FD4F808191818417950719F02F5F231738
S1130D5079F7822F9927089580E090E0E4E7F4E0A2
S1130D609C01808180FF08C0C90101963B968A30AE
S1130D709105B1F72FEF30E0C90108959BE0899FF9
S1130D80F0011124E159FB4F7183608312821382B5
S1130D90148285E085831682108617820895982F21
S1130DA0AFEF60E070E040E050E0E4E7F4E0808121
S1130DB0282F332720FF0BC021FF09C023FD07C0C4
S1130DC0228133812617370710F0A42FB9014F5F12
S1130DD05F4F3B964A30510551F7892F9927681781
S1130DE0790718F48FEF90E008958A2F99270895D2
S1130DF00F931F93CF93DF93182F8FB7F894282F57
S1130E003327022F80913102882379F581E0809382
S1130E10310210932C062FBF2FB7F89433278091FB
S1130E207A00806880937A002FBF8FB7F894C82F18
S1130E30DD279C2F809111028230A9F48091310228
S1130E40813021F482E10E94AA0109C0823059F460
S1130E5080912C068093110283E080933102CFBFEE
S1130E6080E090E025C09FBFFBCF80912C068117C6
S1130E7011F42FBFF5CF812F0E948403882319F02A
S1130E8085E090E014C0E12FE695E695E695FF270E
S1130E90E252FB4F177081E090E002C0880F991F67
S1130EA01A95E2F72081282B208380E090E00FBF81
S1130EB0DF91CF911F910F910895AC0120912902E8
S1130EC02D3018F081E090E0089580912802E82FF9
S1130ED0FF27EE0FFF1FEF50F74F518340838F5FC3
S1130EE0809328028D3011F4109228022F5F2093F2
S1130EF0290280E090E008954FB7F8945527FC014B
S1130F0023E0F695E7952A95E1F7EF53FA4F8770BA
S1130F10907021E030E002C0220F331F8A95E2F77F
S1130F208081822B80834FBF0895DF92EF92FF92DE
S1130F300F931F938FB7F894282F3327D22E9091B5
S1130F40B3008091B20047B3981711F041FF02C07B
S1130F502FBF71C080917E038823E1F10E941A059E
S1130F60E0909B02F0909C0200919D0210919E02E1
S1130F702091B7093091B8094091B9095091BA0943
S1130F806E197F09800B910B62177307840795070D
S1130F9020F010927E0371E01EC02E0D3F1D401FF5
S1130FA0511F8091A6029091A702A091A802B0912E
S1130FB0A902281B390B4A0B5B0B273E310541055F
S1130FC0510540F4822F223010F070E005C070E02B
S1130FD082E002C070E086EE682F61508091B60016
S1130FE083FDFCCF8091B200681709F46F5F2091F4
S1130FF0A6023091A7024091A8025091A902DA01F9
S1131000C9010196A11DB11D860F911DA11DB11D20
S113101082179307A407B50710F4622F6095809197
S1131020B60083FDFCCF6093B300DFBE772319F0D5
S113103086E00E94AA011F910F91FF90EF90DF902C
S11310400895AFB7F894BB27E1E0E0937E03609383
S11310509B0270939C0280939D0290939E02209326
S1131060B7093093B8094093B9095093BA09AFBF8F
S11310700E9495070895882349F0682F772784EC08
S113108099E00E944E326B3F710510F06FEF7FEFD5
S1131090CB010895CF92DF92FF920F931F93CF93CA
S11310A0DF93282F062F482F55278BE090E0489F89
S11310B0E001499FD00D589FD00D1124C159DB4F39
S11310C08D8182FF02C08B7F8D838A81302F381BF4
S11310D00A838B818F5F8B83332379F08C81830F19
S11310E081508C833B3048F068817981822F0E9443
S11310F0BE060A8381E08B836EC08BE090E0489F3C
S1131100F001499FF00D589FF00D1124E159FB4F58
S113111083812481820F912D911D03971CF4333018
S113112008F459C0C080D180CFE6D4E08881998189
S11311308C159D0509F049C08D81282F332720FF88
S113114044C06B81FC80F60E21FD16C077278827EA
S113115099272AEF30E040E050E00E940F322F2D13
S11311603327442755270E946132DA01C9012E83AF
S11311700E943B0898878F838D8182608D830E81C6
S113118089E0089F800111246B817727882799279C
S11311902AEF30E040E050E00E940F322F2D332739
S11311A0442755270E946132C801820F911D6AE0CD
S11311B070E00E944E32CB016E831B821C820E941F
S11311C03B08BC01CE010E94DC052B9684E0CD3D9A
S11311D0D80709F0ABCFDF91CF911F910F91FF900A
S11311E0DF90CF9008951F93CF93DF93162FC0E025
S11311F0D0E066E20E944B04FC01808181238117C8
S113120011F4C1E0D0E0CE01DF91CF911F91089598
S11312101F920F920FB60F9211248F938091B000FA
S11312208093B0008091B60081FDFCCF8F910F9028
S11312300FBE0F901F9018951F920F920FB60F922A
S113124011240F931F932F933F934F935F936F93A7
S11312507F938F939F93AF93BF93CF93DF93EF933A
S1131260FF932EB5E0918205F0918305309739F014
S113127080915A0490915B04E80FF91F20838091B8
S11312805A0490915B04019690935B0480935A04F2
S113129080E00E94DA01C0915A04D0915B0420914D
S11312A0540230915502C217D30708F042C000918E
S11312B06F0A1091700A4091820550918305CE0106
S11312C00A962817390708F4C901DA01AC0FBD1FC3
S11312D0F801EC0FFD1F9C012150304015C0011591
S11312E0110531F080818EBD0DB407FEFDCF04C021
S11312F01EBC0DB407FEFDCF8EB54115510509F096
S11313008C93219611963196C217D30740F381E04E
S11313100E94DA010115110531F00C0F1D1FF801AF
S113132080818EBD01C01EBCD0935B04C0935A045F
S113133011C010928305109282051092700A1092C7
S11313406F0A109255021092540210925B0410928C
S11313505A048EB5FF91EF91DF91CF91BF91AF9178
S11313609F918F917F916F915F914F913F912F91B9
S11313701F910F910F900FBE0F901F9018957894A6
S11313801F920F920FB60F9211240F900FBE0F9061
S11313901F90189578941F920F920FB60F921124F4
S11313A00F900FBE0F901F90189578941F920F9274
S11313B00FB60F9211242F933F938F939F93AF9364
S11313C0BF932FB7F89433278091660490916704F4
S11313D0A0916804B09169040196A11DB11D809388
S11313E0660490936704A0936804B09369042FBFC4
S11313F0BF91AF919F918F913F912F910F900FBE0D
S11314000F901F9018951F920F920FB60F921124F0
S11314102F933F934F935F936F937F938F939F93F8
S1131420AF93BF93EF93FF9340917800509179006D
S113143078948FB7F89499272091DB02322F369550
S1131440317021708FBF222329F580917A00877F24
S113145080937A0080911204813021F0823009F067
S113146043C00AC0332351F05093F5054093F4056B
S113147083E10E94AA0138C0332349F48DE790E048
S1131480019701960197E1F70E9498032DC01092ED
S113149012042AC08FB7F89499278FBF2FB7F894F6
S11314A0332780917A00582F5770482F4072987DC7
S11314B0942B952B8074977B982B90619F77892F21
S11314C0992780937A00887D842B852B877380618C
S11314D0992780937A00887D842B852B877B80696C
S11314E0992780937A002FBFFF91EF91BF91AF911D
S11314F09F918F917F916F915F914F913F912F9128
S11315000F900FBE0F901F901895E0E0F1E069274F
S1131510660FF11DE60FF11DC895982F802D3196A9
S1131520C89590250895982F80913E02882389F5C7
S1131530992379F531E030933E0280911202809331
S11315403F0220913302822F81708093A302809105
S11315501702909118029093410280934002809167
S113156034028093420232273170267EE32FFF2714
S1131570EE0FFF1FED5EFD4F808191819093180265
S113158080931702232B2093330289E10E94AA013E
S113159008958091330280FF02C08B7F01C08D7F4C
S11315A08093330208950F931F93082F162F809171
S11315B03E038130D9F0813038F0823009F44AC0DA
S11315C0833009F028C159C0002309F458C110928E
S11315D01309109212091092FD05109267091092D6
S11315E07D0310926B0410926A0439C1002309F040
S11315F046C180916A0490916B040E94850A90937D
S11316006B0480936A0482E080933E03109367091D
S1131610143409F000C125C18695869503C08091D4
S113162033028695817009F0F6C0809133029923C4
S113163011F0846001C08260809333028091330290
S1131640877E886080933302109234028FEF8093F8
S1131650120215C1002309F0DEC060937D0380915E
S11316606A0490916B040E94850A90936B048093A2
S11316706A0483E080933E0302C18091FD058F3F9D
S113168009F4C9C0002309F461C0823008F4C3C05E
S1131690E0911209EE2309F4EBC04E2F4150E42FE0
S11316A0FF27EE5EF64F82819927382F22274423A5
S11316B011F4E2E002C0E42FE150FF27EE5EF64FA2
S11316C082819927282B392B80916A0490916B048D
S11316D02817390709F09FC080E00E94930A3091CF
S11316E07D038091520420915304982F9F5F96307C
S11316F008F090E0921771F0E82FFF27EE5AFB4FA5
S113170032838F5F80935204863010F0109252041B
S11317100E947003109213091092120994E090939E
S11317203E031092FD051092670910927D031092FA
S11317306B0410926A04809143028D7F809343026C
S113174080913202882309F49AC084C0823008F45C
S11317504EC0E0911309FF27EE5EF64F8281482FB9
S11317605527342F20913302822F869586958695AE
S1131770837099278130910519F00297F9F40EC00E
S1131780277E206120933302442311F485E001C0B5
S113179080E0809334023093120210C080913402AE
S11317A08B3360F4E0911702F0911802E80FF11DF9
S11317B04083809134028F5F8093340280911309B7
S11317C0E82FFF27EE5EF64F62818F5F8093130947
S11317D0833010F010921309772780916A04909156
S11317E06B040E94850A90936B0480936A04809131
S11317F01209E82FFF27EE5EF64F12838F5F809366
S11318001209833010F0109212098091FD058F5F48
S11318108093FD0534C0109213091092120914E04C
S113182010933E031092FD051092670910927D03F8
S113183010926B0410926A04809143028D7F80930E
S1131840430281E00E94930A80913202882329F0A6
S113185010933E030E94090312C0002381F081E02B
S113186009CF80913302982F917080FDD5CED7CEC9
S1131870809116099927382F222742E01CCF1F9107
S11318800F9108951F920F920FB60F9211242F9368
S11318903F934F935F936F937F938F939F93AF93F4
S11318A0BF93EF93FF938091C00087FF42C0609184
S11318B0C600E0916C04F0916D04309719F18091A9
S11318C0720A9091730AE80FF91F6083019690934E
S11318D0730A8093720A20916F0C3091700C8217F6
S11318E0930738F110926D0410926C048091C30533
S11318F08330F9F08091C1008F778093C1001092FA
S1131900C30517C06E3719F460E081E010C0809100
S113191043026D3721F48260809343020AC081FF41
S113192005C08D7F8093430280E2682780E00E9497
S1131930D30AFF91EF91BF91AF919F918F917F91C6
S11319406F915F914F913F912F910F900FBE0F9028
S11319501F901895982F8D57823068F48091430218
S113196081608093430280E289278093FC058DE7A0
S11319708093C50202C09093C50261E070E085ECDB
S113198092E00E9427039927089578941F920F925A
S11319900FB60F921124FF920F931F932F933F932F
S11319A04F935F936F937F938F939F93AF93BF9363
S11319B0CF93DF93EF93FF9320917A0330917B03CE
S11319C080915B0990915C092817390780F4E091B4
S11319D0D003F091D103E20FF31F80812F5F3F4FBB
S11319E030937B0320937A030E941B03D1C010928F
S11319F0D1031092D00310927C038091C1008F7B9D
S1131A008093C100FFB6F8948091430280FF0EC01A
S1131A108E7F809343028091FC058093C50261E030
S1131A2070E085EC92E00E942703AFC08091F60538
S1131A30843009F48CC0853040F4823021F1833045
S1131A40B8F5813009F09CC00DC0863009F48DC012
S1131A50863008F483C0873009F48EC0883009F0DA
S1131A608FC091C0809191030E94AA0C082F83E03B
S1131A708093F6056091910380916D0C90916E0CAA
S1131A800E94850A10C0809175090E94AA0C082F33
S1131A9083E08093F6056091750980916D0C9091B7
S1131AA06E0C0E94850A90936E0C80936D0C66C038
S1131AB0E091DD04FF27EE0FFF1FEC52FC4F808105
S1131AC00E94AA0C082F1091DD04C12FDD27FE010E
S1131AD0EE0FFF1FEC52FC4F608180916D0C9091D2
S1131AE06E0C0E94850A90936E0C80936D0C20916D
S1131AF08D032F5F20938D03113039F580913A02C5
S1131B00E0913502F0913602E80FF11DE0818F5F1C
S1131B1080933A0290913902981730F482E08093CE
S1131B20D50340E050E002C04E2F5527DE01AA0F36
S1131B30BB1FFD01ED52FC4F8081823031F02F3FFD
S1131B4021F0AC52BC4F4C9319C084E012C0809178
S1131B506D0C0E94AA0C082F85E00BC080916E0CBE
S1131B600E94AA0C082F86E004C00E945C03082F80
S1131B7087E08093F60502C088E003C0002329F0C3
S1131B8089E08093F6050E9470038F2D99278FBFFB
S1131B90FF91EF91DF91CF91BF91AF919F918F9181
S1131BA07F916F915F914F913F912F911F910F9171
S1131BB0FF900F900FBE0F901F9018951F920F92D9
S1131BC00FB60F9211248F938091C80087FF02C033
S1131BD08091CE008F910F900FBE0F901F9018959B
S1131BE078941F920F920FB60F9211240F900FBE8C
S1131BF00F901F90189578941F920F920FB60F9222
S1131C0011240F900FBE0F901F90189578941F9277
S1131C100F920FB60F9211240F900FBE0F901F90CA
S1131C20189578941F920F920FB60F9211240F906B
S1131C300FBE0F901F90189578941F920F920FB6B5
S1131C400F9211248F939F93809196009091970007
S1131C509F918F910F900FBE0F901F9018957894BD
S1131C601F920F920FB60F9211242F933F938F93CD
S1131C709F932FB7F89433278091890390918A0317
S1131C80019690938A03809389032FBF9F918F912C
S1131C903F912F910F900FBE0F901F901895EF92C8
S1131CA0FF920F931F9379018A01643018F044E086
S1131CB050E002C0462F5527BC0188E196E00E94FF
S1131CC0FF31E0922202F092230200932402109347
S1131CD025020E9425061F910F91FF90EF90089511
S1131CE01F920F920FB60F9211242F933F934F938D
S1131CF05F936F937F938F939F93AF93BF93EF9370
S1131D00FF938091B0008093B0008091B60081FD74
S1131D10FCCF8091B30099270196AA27BB27209175
S1131D20A6023091A7024091A8025091A902280F5F
S1131D30391F4A1F5B1F2093A6023093A7024093CA
S1131D40A8025093A90278940E949507FF91EF91FD
S1131D50BF91AF919F918F917F916F915F914F91BF
S1131D603F912F910F900FBE0F901F9018956E5FAB
S1131D700E9454040895AF92BF92CF92DF92EF92E3
S1131D80FF920F931F9380910D0290910E02A091E8
S1131D900F02B0911002B695A795979587958093F9
S1131DA0340390933503A0933603B09337030E9412
S1131DB07204E0903403F0903503009136031091DF
S1131DC03703A80197010E9461325B016C01AE0CDC
S1131DD0BF1CC01ED11EA0923403B0923503C09222
S1131DE03603D0923703109211090E941A05AB01F1
S1131DF0BC0111E0E12E9601850181E00E94FB0403
S1131E001F910F91FF90EF90DF90CF90BF90AF9014
S1131E10089521E02093D2032093BF0520918400EC
S1131E2030918500BC01C9010E9468020895EF92B7
S1131E30FF920F931F93CF93DF93982F8FB7F8944C
S1131E40E82E80913102833009F045C0809111025F
S1131E50891709F040C08091DE04882309F04AC044
S1131E603EC0EF2DE695E695E695FF274F2D5527C5
S1131E70E252FB4F9A012770307081E090E002C07B
S1131E80880F991F2A95E2F78095208128232083C3
S1131E90C093300211C02196C230D10511F4C0E0C4
S1131EA0D0E0FC2E8C2F0E9484038823D1F6C01727
S1131EB0D10789F74FEF50E040932C068FEF8093C2
S1131EC0110281E08093310282E10E94AA01EFBEF7
S1131ED080E090E015C0EFBE81E090E011C082E0A8
S1131EE0809311021092310280917A008F7780934F
S1131EF07A00EDCF80913002082F1127E801CBCF73
S1131F00DF91CF911F910F91FF90EF9008950F9360
S1131F101F93FC0100810D50112762E00E944404CC
S1131F20FC01208133272F703070C901880F991F5D
S1131F30820F931F081B0250802F99271F910F9126
S1131F4008950F931F93CF93DF93182F0FB7F8942F
S1131F5080912102882311F40E94E301802F9927A4
S1131F608FBF8FB7F894C82FDD272C2F80912102C3
S1131F70882361F481E080932102109392038AE024
S1131F800E94AA01CFBF80E090E021C0E12FFF278B
S1131F90E057FC4F80818F3F89F4E0910902E117FB
S1131FA089F40CC01093080204C0FF27E057FC4FCB
S1131FB010831093090280E090E002C085E090E075
S1131FC02FBF05C0809108028F3F79F7EBCFDF91D7
S1131FD0CF911F910F9108958FB7F894282F33272D
S1131FE0922F80910A02882331F480912102823059
S1131FF011F42FBF13C09FBF8FB7F894282F332736
S113200080912102882369F482E080932102109256
S11320100A022FBF0E94E301209A289A81E090E0EF
S113202008952FBF80E00E94A10F80E090E0089502
S11320301F93982F1FB7F89480912002823091F556
S113204080910702891771F58091050220E030E044
S11320508F3F11F421E030E0232BE9F49FEF9093BC
S113206007028F3F19F42FEF30E00DC0282F3327DC
S1132070F901EE51FD4F8081809305028F3F11F4E9
S11320809093060290832093DE0281E080932002E5
S11320900E94AA0105C08FEF8093070210922002CC
S11320A021E001C020E0812F99278FBF90E02130EB
S11320B009F491E081E09827892F99271F910895C9
S11320C080913C03823031F481E080933C0383E0CF
S11320D00E94AA0108953F924F925F926F927F925D
S11320E08F929F92AF92BF92CF92DF92EF92FF9224
S11320F00F931F93CF93DF932C0180915302882376
S113210009F07AC18091710A853009F075C10E9485
S1132110EC0F882309F470C180915209882309F0D7
S11321206BC1B20182E00E94D002882311F490E0D6
S113213003C0F20192AD9F7080911304981781F04F
S113214090931304289885EC8EBD0DB407FEFDCF43
S11321508EB590689EBD0DB407FEFDCF8EB5289A4E
S1132160C2010E944A02882301F1289886E88EBDA4
S11321700DB407FEFDCF8EB51EBC0DB407FEFDCF1A
S11321808EB5289A99278F7190702091870340917A
S11321903303240F312D311D43E0359527954A959E
S11321A0E1F7281739070CF427C1289882EC8EBD73
S11321B00DB407FEFDCF8EB589E08EBD0DB407FECC
S11321C0FDCF8EB5289A0E9414027B018C01B201C6
S11321D084E00E94D002882319F4E0E0F0E006C015
S11321E0D2018C918550F201E80FF11D289881E805
S11321F08EBD0DB407FEFDCF8EB51EBC0DB407FE1B
S1132200FDCF8EB5289A8F71893079F0289882ECA9
S11322108EBD0DB407FEFDCF8EB586E08EBD0DB428
S113222007FEFDCF8EB5289AE7C08FB7F89499279B
S11322302F9A20918400309185008FBF2F98289881
S113224080E68EBDD2019C910DB407FEFDCF8EB504
S11322509EBD8EEF382E390EB6E0B31510F0632D07
S113226001C067E0A2014F5F5F4FDA01962F7D91B5
S11322700DB407FEFDCF8EB57EBD9150C1F7615000
S1132280EA01C60FD11D6F5F21962E193F092E5505
S11322903F4F3901882477FC8094982C6E0C7F1C66
S11322A0801E911E309719F4932D961B42C02081F5
S11322B0E1808281A3809927AA27BB27BA2FA92F5F
S11322C0982F8827332744275527522F442733270D
S11322D02227FF24002711278701FF24EE242E291B
S11322E03F29402B512BBB24CC24DD242A293B2914
S11322F04C295D29822B932BA42BB52B8619970986
S1132300A809B9098383292F3A2F4B2F55272283F4
S11323109D014427552721838B2F9927AA27BB2763
S11323208083C2CF28810DB407FEFDCF21968EB5E0
S11323302EBD9150B8F70DB407FEFDCF8EB5289A87
S1132340289882EC8EBD0DB407FEFDCF8EB586E0D5
S11323508EBD0DB407FEFDCF8EB5289A3097D1F10E
S11323602081E1808281A3809927AA27BB27BA2FE5
S1132370A92F982F8827332744275527522F4427DE
S113238033272227FF24002711278701FF24EE2467
S11323902E293F29402B512BBB24CC24DD242A2970
S11323A03B294C295D29822B932BA42BB52B860D1D
S11323B0971DA81DB91D8383292F3A2F4B2F55270D
S11323C022839D014427552721838B2F9927AA27F0
S11323D0BB278083B20181E00E940802F20164AA53
S11323E075AA86AA97AA86E08093710A84E08093EE
S11323F0530280E090E002C085E090E0DF91CF914D
S11324001F910F91FF90EF90DF90CF90BF90AF900E
S11324109F908F907F906F905F904F903F90089522
S1132420AF92BF92CF92DF92EF92FF920F931F93DE
S1132430CF93DF9380915209882309F4F5C00E9459
S1132440EC0F882309F4F0C08FB7F8949927C09152
S11324508B03D0918C038FBF1092520928988FE878
S11324608EBD0DB407FEFDCF8EB51EBC0DB407FEA8
S1132470FDCF8EB5289A982F80915302833011F0A6
S1132480873031F485E08093710A88E080935302A9
S1132490A92EBB24A2FE63C080915302863019F496
S11324A01092530203C0882309F059C0943009F0F4
S11324B045C0289886E88EBD0DB407FEFDCF8EB5C5
S11324C01EBC0DB407FEFDCFFEB4289A2FE1F22204
S11324D080913303982F969596953F2D391B830F42
S11324E08093330300919F021091A002F80180AD04
S11324F08B7F80AFB80183E00E940802F801F2AE3E
S11325000E9414027B018C01C0909F02D090A00213
S1132510B60181E00E940802CE19DF092797CE0197
S1132520AA2797FDA095BA2F8E0D9F1DA01FB11F3E
S1132530F60184AB95ABA6ABB7AB0EC0E0919F029E
S1132540F091A00280AD877F80AFE0919F02F0916F
S1132550A00280AD8D7F80AF85E080935302A3FEFF
S113256063C080915302843009F041C085E08093B8
S1132570710A109253028091A502833019F41092CB
S1132580A50252C00091530C1091540CC8010E9432
S11325903902882321F1C8010E944A028823F9F0F4
S11325A0C8010E945E028F5F9F4FC9F090E0809146
S11325B0BF05882309F491E0992389F012E0109370
S11325C0D20381E08093BF058091840090918500BF
S11325D069E973E00E9468021093A50225C0109275
S11325E0A50210923D0380E00E9492021DC0853036
S11325F0D9F420918703289886E88EBD0DB407FE90
S1132600FDCF8EB51EBC0DB407FEFDCF8EB5289A46
S11326108F71922F96959695891B280F2093870387
S113262089E08093530208C090915302992309F4DE
S1132630D6C2993009F003C2289880E28EBD0DB449
S113264007FEFDCF8EB51EBC0DB407FEFDCF8EB5C3
S1132650482F5527433008F487C3842F9927C697FA
S11326600CF082C31EBCE0919F02F091A002408353
S1132670042F0250073010F4102F01C017E09F01FF
S11326802F5F3F4F912FF901EE24FF240DB407FE75
S1132690FDCF8EB51EBC80838191A7014827042EEF
S11326A04295407F4025052E542F42954F700426B5
S11326B0469554274527440F440F440F40257A017B
S11326C0915021F71150E901C10FD11D1F5F2196CF
S11326D080919F029091A0020E949F02882349F05A
S11326E020E030E08091A502823081F421E030E0E6
S11326F00DC08FB7F894282F332790E080910B09F1
S1132700833008F491E02FBF292F3327232B09F4BA
S11327105FC0902F911B1AC00DB407FEFDCF8EB57C
S11327201EBC88838991F701E8270E2EE295E07F8D
S1132730E0250F2EFE2FE295EF700E26E695FE277C
S1132740EF27EE0FEE0FEE0FE0257F01915020F7FB
S11327500DB407FEFDCF8EB51EBC97012827022EAF
S11327602295207F2025032E322F22952F700226BA
S1132770269532272327220F220F220F20250DB45E
S113278007FEFDCF8EB51EBC2827022E2295207F82
S11327902025032E322F22952F70022626953227CC
S11327A02327220F220F220F20250DB407FEFDCF71
S11327B08EB5E0919F02F091A00281AF289A15E0B6
S11327C01093710A10925302232B09F004C205C01E
S11327D00DB407FEFDCF8EB5C7C2C0919F02D09144
S11327E0A002CE010E949F029091A502882321F1AC
S11327F0923009F01FC19B81E091530CF091540C6D
S11328008381981709F016C189818770823009F095
S113281011C180916F008D7F80936F001092BF056E
S1132820BF0180E00E9408021092A50210923D03AD
S113283080E00E949202FEC09923C1F4CE010E945E
S1132840AA02882399F01093160482E08093170457
S1132850109218048B818093190486E194E00E94FD
S11328606B10882319F483E08093A50200918400FF
S113287010918500CE010E94AA02882311F0045E03
S11328801C4F10935D0400935C048091840090912C
S113289085009801281B390B12161306A4F48091A5
S11328A03D03882369F490E08091BF05882309F4EF
S11328B091E0992341F0C9010E94090F80E801C009
S11328C0806880933D03CE010E94DC02AC018091BC
S11328D0AA02282F3327F901EE0FFF1FE35AF64F00
S11328E0808191810091C0058417950749F4F9010D
S11328F0E35BF34F8081801709F468C0802F1BC00D
S1132900EE24FF2480E090E0ADE5B9E0EDE4FCE0E6
S1132910BF01182F9C018D919C91119784179507E5
S113292089F42093AA029091C005FB018081891744
S113293009F44CC0892F8F5F8093C0058083E0E841
S1132940EE2E2AC08081902F981BE91610F4E92EF0
S1132950F22E1F5FC90101966F5F7F4F1296319669
S113296085309105B1F61530B9F4F092AA02AF2D75
S1132970BB27FD01EE0FFF1FE35AF64F518340833F
S11329808091C0058F5F8093C005FD01E35BF34F29
S11329908083AF58B34F1C929091C005892F8F77D5
S11329A08F3781F4EEE7EE1568F4EDE4FCE0292FAF
S11329B0207880818F678913208331963CE0E2354B
S11329C0F307B9F78091AA02282F33279B81A22FFE
S11329D0BB27FD01EF58F34F808180FF07C0FD0145
S11329E0E45FF64F8081981729F102C081608083EB
S11329F0A45FB64F9C93FFB6F89480910B09833083
S1132A00B0F4E0917409E80FE33008F0E350FF27D5
S1132A10EE0FFF1FEC56FD4F00811181D183C0835F
S1132A208F5F80930B0984E00E94AA01E8018F2D37
S1132A3099278FBFD093A002C0939F02C3C0892F50
S1132A408150833008F09CC081508230E0F4309192
S1132A50710A3130C1F420E08091BF05882309F464
S1132A6021E0222381F02F9883E08093D2033093D6
S1132A70BF0580918400909185006BE273E00E9411
S1132A80680282E068C0933009F042C08091710A04
S1132A90833009F097C00E94EC0F8823C9F128986D
S1132AA08FE88EBD0DB407FEFDCF8EB51EBC0DB4F0
S1132AB007FEFDCF8EB5289A8091810080648093B3
S1132AC0810080E286BB80916F00806280936F00FA
S1132AD09091DD02289888EC8EBD0DB407FEFDCFE1
S1132AE08EB590669EBD0DB407FEFDCF8EB5289AB7
S1132AF0289882EC8EBD0DB407FEFDCF8EB586E01E
S1132B008EBD0DB407FEFDCF8EB5289A84E023C098
S1132B10809153028150823000F58091710A853092
S1132B20E1F40E94EC0F8823C1F0289882EC8EBD5A
S1132B300DB407FEFDCF8EB583E08EBD0DB407FE48
S1132B40FDCF8EB5289A80916F008F7D80936F00A2
S1132B501092520983E08093710A9091530291304C
S1132B6041F48091710A8330B1F52F9A9093710AE0
S1132B7025C0923039F58091710A833061F51EC009
S1132B80973001F50E94EC0F8823E1F09091DD026B
S1132B90289888EC8EBD0DB407FEFDCF8EB59066E7
S1132BA09EBD0DB407FEFDCF8EB5289A8091710AA3
S1132BB0853021F484E08093710A04C088E0809316
S1132BC0530204C080915302883029F410925302B6
S1132BD082E00E94AA0180915302882309F5809122
S1132BE0710A8530D1F4809152098823B1F480911F
S1132BF0A502882391F480913D03882371F490E029
S1132C008091BF05882309F491E0992331F00E9453
S1132C10601080915302882319F488E00E94AA016D
S1132C208091BF05823009F092C01092BF05F090E8
S1132C30D20342E0F41609F466C053E0F51609F431
S1132C406AC081E0F81609F082C020915C043091DA
S1132C505D04809184009091850040913D0340384B
S1132C6029F410923D030E94601071C08901081B71
S1132C70190B47FF03C010161106ECF0C09138037E
S1132C80D09139038091A5028823A9F4CE010E9432
S1132C906B109927882351F488AD8E7F88AFF0920A
S1132CA0A502D093540CC093530C29C09927F82E35
S1132CB0882329F102C055E0F52E20913D03822F8F
S1132CC099278F77019759F42078226020933D0348
S1132CD080E198E00E94E6020E94090F38C027FFB5
S1132CE00AC0101611063CF480E880933D03C80125
S1132CF00E94090F02C010923D038F2D09C083E08A
S1132D0080933D0324C01092A50210923D0380E0FD
S1132D100E9492021CC08091710A823019F4F092D0
S1132D20710A13C080915302863079F410925302D1
S1132D30289881E88EBD0DB407FEFDCF8EB51EBC6C
S1132D400DB407FEFDCF8EB5289A0E94EF188FB7F9
S1132D50F894282F33278091DC02813061F081E0E0
S1132D608093DC022FBF66CB289A85E08093710A9A
S1132D701092530230CF1092DC022FBFDF91CF911B
S1132D801F910F91FF90EF90DF90CF90BF90AF9085
S1132D9008958FB7F894282F33278091DC0281504F
S1132DA08093DC02803811F02FBF089581E0809376
S1132DB0DC022FBF0E94101208951F93FC018FE3C1
S1132DC08287809147028F5F8093470283832FB766
S1132DD0F89433278091DC028F5F8093DC022FBF4D
S1132DE080913C03882311F015E00DC0F093F805A1
S1132DF0E093F70581E080933C031092C20583E0E1
S1132E000E94AA0110E00E94C916812F99271F91E0
S1132E100895EF92FF920F931F93CF93DF93082FA0
S1132E207B01EA01122F293218F086E090E086C077
S1132E30CA010E944A02882351F489819927807328
S1132E409070816498688983892F99278A831E5F8B
S1132E50612FCE010E9454042FB7F8943327809138
S1132E600202909103022FBF8887892F99278987AF
S1132E702FB7F8943327809104022FBF99278C83AE
S1132E801D82CE010E945204FC010083EE828F2D2C
S1132E9099278F838FB7F894282F332780912002A6
S1132EA0882371F482E080932002109207022FBFDE
S1132EB0CE010E94DD169927182F882399F00FC0A0
S1132EC02FBFD093E002C093DF028FB7F894C82FCE
S1132ED0DD272C2F80912002882391F406C080E006
S1132EE00E941810812F992729C081E08093200225
S1132EF01092DE020E94AA01CFBF80E090E01EC0C3
S1132F008091E2028F3F89F4E0910602EE2369F09A
S1132F1010C01092050204C0FF27EE51FD4F10822D
S1132F201092060280E090E002C085E090E02FBF9E
S1132F3005C0809105028F3F79F7EBCFDF91CF91E8
S1132F401F910F91FF90EF900895EF92FF920F93CE
S1132F501F93CF93DF9380910B029927019664E02E
S1132F6070E00E944E32682F80930B0200E0462FDF
S1132F705527FA01EE0FFF1FE25AFB4FC081D181A2
S1132F80209799F0E62FE695E695E695FF27E75713
S1132F90F64F808199279A012770307002C0959569
S1132FA087952A95E2F780FF0DC0CA01019664E077
S1132FB070E00E944E32682F0F5F0430C1F6009318
S1132FC00B021AC060930B026430B0F408810D50F8
S1132FD01127CE010E945E027C01CE010E945204A0
S1132FE0FC01202FAE01B70180810E9409178823BC
S1132FF019F08CE00E94AA01DF91CF911F910F91EB
S1133000FF90EF900895CF92DF92EF92FF920F938B
S11330101F93CF93DF93D82E7B01C42E83E08D15AD
S113302018F481E090E037C0CD2DDD27CC0FDD1FF3
S1133030C25ADB4F88819981892B19F085E090E091
S11330402AC0798368836C2D6E5FC7010E94540483
S113305080910B02843018F480E090E01CC0C7011A
S11330600E945204FC0100811127C7010E945E02E4
S1133070D0920B022C2DA701BC01802F0E940917AE
S11330809927282F882329F084E080930B02198242
S11330901882822F9927DF91CF911F910F91FF9072
S11330A0EF90DF90CF900895CF92DF92EF92FF924E
S11330B00F931F93CF93DF936C0180919A0288231F
S11330C009F484C080913A03882309F07FC066E044
S11330D086E592E00E944404EC01892B09F476C051
S11330E081E080933A03C9828D2D9927888381E0FA
S11330F0C816D10429F020E030E040E050E008C0D8
S11331002091220230912302409124025091250201
S1133110FE0132962383BB27A52F942F832F82830E
S1133120CA01AA27BB278183252F33274427552784
S11331302A83E280FF2400271127102F0F2DFE2C55
S1133140EE24522F4427332722279927AA27BB2767
S1133150DC0199278827282B392B4A2B5B2B838169
S11331609927AA27BB27282B392B4A2B5B2BE22A2A
S1133170F32A042B152BE114F1040105110511F4B4
S113318010E011C081E0C816D10421F414E068E114
S113319076E003C010E060E070E0412F5527CE01D7
S11331A006960E94FF318FEF80935C0280935D024C
S11331B086E592E00E945204FC0180E680831A5F57
S11331C0412F66E572E080E00E940318DF91CF9101
S11331D01F910F91FF90EF90DF90CF9008958FB7DC
S11331E0F894282F33278091DC02882329F0806803
S11331F08093DC022FBF089581E08093DC022FBF0F
S11332000E941012089578941F920F920FB60F9295
S113321011242F933F934F935F936F937F938F93D7
S11332209F93AF93BF93EF93FF93E6E8F0E0808121
S11332309181208131818FB7F894992730938C0341
S113324020938B0321E0209352098FBF0E94EF1833
S1133250FF91EF91BF91AF919F918F917F916F916A
S11332605F914F913F912F910F900FBE0F901F9040
S1133270189578941F920F920FB60F9211242F93E2
S11332803F934F935F936F937F938F939F93AF93EA
S1133290BF93EF93FF9380916F008D7F80936F00B6
S11332A078949FB7F8948091BF05813019F482E037
S11332B08093BF05892F99278FBF0E94EF18FF9134
S11332C0EF91BF91AF919F918F917F916F915F919A
S11332D04F913F912F910F900FBE0F901F90189513
S11332E01F938FB7F89499272091DC022F5F2093C6
S11332F0DC028FBF80913C03882311F015E023C0CA
S1133300809153028823E1F48091710A813049F459
S113331090E08091BF05882309F491E0992381F01E
S113332005C0853019F489E090E00CC083E08093F7
S113333053020E94EF1885E080933C0310E003C021
S113334085E090E0182F0E94C916812F99271F91BC
S11333500895AF92BF92CF92DF92EF92FF920F93B4
S11333601F93282F33278BE090E0289FF001299F9B
S1133370F00D389FF00D1124E85BFD4F828193819D
S1133380A481B5810097A105B10569F0808191817F
S1133390880F991F918380838150944020F080E0AE
S11333A094E0918380838BE090E0289F5001299FD3
S11333B0B00C389FB00C112488E492E0A80EB91E1A
S11333C0F50186819781A085B18582839383A48347
S11333D0B583C080D180EE24FF2469E0CC0CDD1CD1
S11333E0EE1CFF1C6A95D1F70E947204DC01CB012C
S11333F0F50100811181B801762F6627770F0E94AD
S11334003A32AA27BB278C0D9D1DAE1DBF1D222756
S113341033274AE0000F111F221F331F4A95D1F7AB
S1133420081B190B2A0B3B0B068317832087318754
S11334302281338144815581280F391F4A1F5B1F24
S113344022833383448355831F910F91FF90EF9020
S1133450DF90CF90BF90AF900895CF93DF93EC01AE
S11334600E948C06282F8091A4022817D1F0382FAF
S113347031503093A40213C0822F9927E3E0880FC0
S1133480991FEA95E1F7DC01AD51BD4FFC01E5510F
S1133490FD4F88E001900D928150E1F72F5F2317D3
S11334A058F380915309909154098C179D07A1F406
S11334B08FEF9FEF9093540980935309109256090C
S11334C010925509109257091092580981E080937F
S11334D02F0281E10E94AA01DF91CF9108951F93E9
S11334E0CF93DF93EC010E9413048F3F21F50E94D8
S11334F0AC068F3F11F0BE011CC08AE00E94CF06CB
S1133500182F8F3F19F481E090E017C0282F33273C
S11335108BE090E0289FF001299FF00D389FF00D7B
S11335201124E159FB4F808191810E942D1ABE0123
S1133530812F0E94BE0680E090E0DF91CF911F9121
S113354008950F931F93CF93DF93EC018091F004C0
S113355081FF03C08D7F8093F004CE010E948C060E
S1133560082F8A3019F480E090E04CC08091A402C6
S1133570081729F51127F3E0000F111FFA95E1F759
S11335800D511D4F8091000290910102F801918329
S11335908083D383C283CE010E942B04F8019583D8
S11335A0848381E0868317828091A4028F5F809355
S11335B0A40280910002909101020E946F1A8091EE
S11335C00002909101020E945804D0935409C093C0
S11335D0530981E08093570910925809CE010E9443
S11335E02B04909356098093550980912C028823CB
S11335F039F080912D02882319F080E10E94AA01FC
S113360081E090E0DF91CF911F910F9108956AE0DE
S11336100E944404FC0184819927982F88272581DE
S11336203327822B932B0895EF92FF920F931F93CE
S1133630CF93DF937C0100916C098091FB05C82F27
S1133640DD2710E017C0C7010E94071B9C01CE01B3
S1133650810F911D66E170E00E944E32E82FFF2732
S1133660EE0FFF1FE557F64F80819927281739077A
S113367019F01F5F101739F7812F9927DF91CF9128
S11336801F910F91FF90EF9008956AE00E94440407
S1133690FC0184819927982F882725813327822B41
S11336A0932B08956AE00E944404FC0180859927C5
S11336B008956AE00E944404FC01818599270895D5
S11336C06AE00E944404FC018781992708956AE016
S11336D00E944404FC018681992708950F931F9347
S11336E0CF93DF93EC018B010E94591BF801818772
S11336F0CE010E94521BF80180870E94D305CE019F
S11337000E94451B0197C1F480911F02813061F42E
S1133710CE010E94671B992720911E02821B9109EA
S113372002972CF0109803C081E080931F02CE0111
S11337300E94671B80931E029091E10280E099230E
S113374009F481E08823E9F520914602322F2830DC
S1133750C0F5992319F400E010E016C08091A2028C
S1133760E82FFF27EE0FFF1FE858F64F0081118165
S11337701182108291509093E1028F5F8093A20294
S1133780883011F41092A2023830A0F480914502DE
S1133790E82FFF27EE0FFF1FE45EF94FD183C083AC
S11337A08F5F80934502883011F4109245022F5F99
S11337B02093460280911B02882321F40E94AA01CF
S11337C001C08E01C801DF91CF911F910F9108951F
S11337D06AE00E944404FC018181992708956AE00B
S11337E00E944404FC01868199270895EF92FF9278
S11337F00F931F937C010E94EF1B082F1127C70111
S11338000E94141B20E030E0E82FFF27EE0FFF1F7B
S1133810E557F64F8181081B11090130110511F498
S113382021E030E0C9011F910F91FF90EF900895BE
S1133830DF92EF92FF920F931F93CF93DF938C014C
S1133840D0909202F0905104EE2432C06AE0C80194
S11338500E944404FC014F2D4370552724813327D3
S1133860322F222785819927282B392BEA01CC0F67
S1133870DD1FCC0FDD1FC40FD51FCA53DD4F888158
S113388099812817390791F4C8010E94EF1B9A8186
S1133890981761F4C8010E94E81B9C81981731F4C1
S11338A0C8010E94601B9B81981721F0E394F39454
S11338B0ED1461F68E2D9927DF91CF911F910F9111
S11338C0FF90EF90DF9008958F929F92AF92BF92F6
S11338D0DF92EF92FF920F931F93CF93DF934C01EC
S11338E0FC018281882369F490926E0A80926D0AA9
S11338F08281882309F094C00E94D30510921A0291
S11339008FC0442309F484C0F401A080B180809165
S11339109202843009F046C0C5010E94181C20910F
S11339209202622F0E942E32492F9217D8F59923C2
S113393059F4809151049927019664E070E00E9443
S11339404E328093510429C080915104840F912DEB
S1133950911D9C0123703070E901CC0FDD1FCC0F49
S1133960DD1FC20FD31F019664E070E00E944E3247
S1133970FC01EE0FFF1FEE0FFF1FE80FF91FCA53E4
S1133980DD4FEA53FD4F85E0019009928150E1F744
S11339904F5F809192024817B8F280919202815051
S11339A080939202D0909202009151040D0D112D3A
S11339B0111D037010706AE0C5010E944404FC01EB
S11339C07801EE0CFF1CEE0CFF1CE00EF11E86ECE1
S11339D092E0E80EF91E84819927982F8827258183
S11339E03327822B932BF70191838083C5010E9497
S11339F0EF1BF7018283C5010E94E81BF701848352
S1133A00C5010E94601BF7018383D394D092920274
S1133A10F401808191810E948905C4010E94A80556
S1133A20DF91CF911F910F91FF90EF90DF90BF90A6
S1133A30AF909F908F900895AF92BF92CF92DF92F4
S1133A40EF920F931F935B016C010E941A05AB0167
S1133A50BC0181E0E82E9601850183E00E94FB040D
S1133A601F910F91EF90DF90CF90BF90AF9008958A
S1133A70CF92DF92EF92FF920F931F936C017B0121
S1133A800E947204DC01CB01B6010E943A32E80EB6
S1133A90F91E00271127C801B7010E941C1D1F91A0
S1133AA00F91FF90EF90DF90CF9008950F931F93A5
S1133AB0CF93DF93EC01E0912702FF27EE0FFF1F66
S1133AC0EF50F74F00811181662329F06CE170E01B
S1133AD08CE190E02DC08091260283FF3BC0BE01A3
S1133AE080E00E94D0028823A9F5CE010E945E02E4
S1133AF00E941304982F8F3F71F08BE0989FF00180
S1133B001124E159FB4F82858F5F8287853018F03D
S1133B10CF010E94F00581E10E94AA01F80183818E
S1133B2081508383882339F067E070E087E090E078
S1133B300E94381D3AC00E946E05809126028F7E35
S1133B408093260267E070E087E090E00E94381DD1
S1133B5040E027C00E946E05809126028F7E8093EC
S1133B60260267E070E087E090E00E94381DCE01F5
S1133B700E945E020E941304982F8F3F89F08BE00D
S1133B80989FF0011124E159FB4F81858F5F818754
S1133B9082858F5F8287853018F0CF010E94F005FF
S1133BA041E0BE01C8010E94641CDF91CF911F91C6
S1133BB00F910895282FCB01213039F0213028F0BE
S1133BC0223031F0233089F407C010923A0308956B
S1133BD0642F0E94561D08956F53734031F48091F1
S1133BE02E02882311F010922E020895AF92BF92F4
S1133BF0CF92DF92EF92FF920F931F930E941A05C8
S1133C007B018C016091DF047091E0048091E104F8
S1133C109091E204A0904A02B0904B02C0904C02F2
S1133C20D0904D02A114B104C104D10409F44EC0D2
S1133C30EFB7F8942091C10520FD36C0A801970183
S1133C40261B370B480B590B2A153B054C055D0504
S1133C50C8F4A21AB30AC40AD50A80914A02909100
S1133C604B02A0914C02B0914D02821B930BA40B0A
S1133C70B50B80934A0290934B02A0934C02B093ED
S1133C804D0215C081E090E0A0E0B0E080934A02CC
S1133C9090934B02A0934C02B0934D0231E0A32EBB
S1133CA0B12CC12CD12C03C02E7F2093C1058E2FA3
S1133CB099278FBF0E941A05AB01BC0121E0E22EB7
S1133CC09601850180E00E94FB0405C08091E70411
S1133CD08D7F8093E7041F910F91FF90EF90DF9009
S1133CE0CF90BF90AF900895FF920F931F93CF93FF
S1133CF0DF93F82E282F33278BE090E0289FE001F4
S1133D00299FD00D389FD00D1124C85BDD4F81E071
S1133D1090E0998388831A868A819B81AC81BD81D6
S1133D200097A105B105A1F00FB7F8941127C901B7
S1133D300E947C070FBF1A821B821C821D821E8276
S1133D401F82188619868F2D0E94A9190E94F61DBC
S1133D50DF91CF911F910F91FF9008952F923F9281
S1133D605F926F927F928F929F92AF92BF92CF9207
S1133D70DF92EF92FF920F931F93CF93DF93CDB710
S1133D80DEB722970FB6F894DEBF0FBECDBF8FB754
S1133D90F894282F332780910B09882309F4F1C460
S1133DA0E0917409FF27EE0FFF1FEC56FD4FC08012
S1133DB0D1802FBFF60182858F3309F0A8C4C601D4
S1133DC00E9452044C01FC011081F6010081C601DD
S1133DD00E945E02AC018FB7F894992720910202E9
S1133DE0309103028FBF4217530721F04F5F5F4F9B
S1133DF009F0BFC49CE0292E312C2C0C3D1C83EF10
S1133E00582E500E103709F4C3C0113730F4103651
S1133E1041F0113609F091C493C0113709F08DC4F3
S1133E205CC2F601848525859927782F6627332778
S1133E30622B732B268577849089618861307105A4
S1133E4021F088249924540108C080902202909083
S1133E502302A0902402B090250280919A02882324
S1133E6009F46BC4892F9927AA27BB27EE24F82EBF
S1133E70092F1A2F332744275527522F4427332736
S1133E802227872D9927AA27BB27DC019927882772
S1133E90282B392B4A2B5B2B862D9927AA27BB2746
S1133EA0282B392B4A2B5B2BE22AF32A042B152BC4
S1133EB081149104A104B10461F4E114F104010535
S1133EC0110591F16130710509F037C4FAEF5F0E05
S1133ED01BC0E114F1040105110529F461307105D9
S1133EE009F02BC418C0D801C70188199909AA0977
S1133EF0BB09181619061A061B068CF461307105E5
S1133F0009F01BC42AEF520EA8019701652DC101C7
S1133F1006960E944F0E80E00E94741E0EC4E814A0
S1133F20F9040A051B0551F46130710509F005C453
S1133F30809152028F5F80935202FFC3CB0125C050
S1133F4080919A02882309F4F8C3F60184852585B3
S1133F509927982F88273327822B932B019709F0D1
S1133F60ECC38091220290912302A0912402B0918B
S1133F7025020097A105B10509F4DFC3F101808191
S1133F809927982F8827822B932B0E945418D5C3E6
S1133F90C6010E945E028F5F9F4F09F0EAC062E093
S1133FA0C6010E9444048C01C6010E94DC025C012B
S1133FB00E9413048F3F21F0F801618177271DC00F
S1133FC00E94AC06F82EFFEF8F17D1F0B5010E94C6
S1133FD0BE06F80141812F2D33278BE090E0289F06
S1133FE0F001299FF00D389FF00D1124E159FB4F8A
S1133FF04283F801618177278F2D0E944A08B9C056
S113400081E40E94CF06182F8F3FA1F0282F332779
S11340108BE090E0289FF001299FF00D389FF00D70
S11340201124E159FB4F808191810E942D1AB50121
S1134030812F9DC090E0F60181AD893C08F091E0AC
S1134040992309F496C0C6010E94870F982FF401A2
S11340508081803709F08DC0953009F06EC365E02A
S1134060C6010E944B048C01FC01818122819927A5
S1134070982F88273327822B932B8F5F9F4F09F428
S11340807EC0F801838124819927582F4427332740
S1134090422B532B4115510521F18091A402E82EA6
S11340A0FF246091530970915409A0E020E030E0AE
S11340B0E3EEF2E00EC0808191818617970731F01C
S11340C0848195814817590708F4A1E02F5F3F4F79
S11340D038962E153F0514F4AA2369F3AA2309F48C
S11340E053C010E0E4E7F4E08081992780FF04C026
S11340F083FD02C081FF1F5F3B9624E0E23EF2078E
S113410099F71123B1F10E947204DC01CB01612FF4
S113411077270E943A3200E010E0E4E7F4E090816F
S1134120992349F0292F332723FD05C021FD03C01E
S113413081508F3F39F00F5F1F4F3B960A301105B6
S113414071F717C0202F0F3FA1F033278BE090E0C9
S1134150289FF001299FF00D389FF00D1124E1599B
S1134160FB4F808191810E942D1AB501802F0E94FE
S1134170BE06C6010E94870F853009F0DEC265E0E5
S1134180C6010E944B048C01C6010E94DC027C0122
S113419060E4C6010E94F308682E58010894A11C2B
S11341A0B11CF8018181F50121819927982F882775
S11341B03327822B932B8F5F9F4F09F486C0F8011E
S11341C0838124819927982F88273327822B932B47
S11341D0892B31F4C7010E946F1AC7010E94580449
S11341E0F801938084807180F501B180C7010E9439
S11341F02B048C01C7010E948C06482F8A30F1F1F0
S1134200892D9927782F6627882D9927682B792B54
S1134210872D9927382F22278B2D9927282B392B47
S11342208091A4024817C9F40233110538F5E42F2C
S1134230FF27B3E0EE0FFF1FBA95E1F7ED51FD4FF5
S1134240F182E082338322837583648381E08683F1
S113425017824F5F4093A40211C0E42FFF27A3E00D
S1134260EE0FFF1FAA95E1F7ED51FD4FF182E082B9
S1134270338322837583648381E0868380910C0277
S1134280882319F5C7010E948C06E82F8091A402A7
S1134290E81748F4FF2773E0EE0FFF1F7A95E1F764
S11342A0ED51FD4F678280915809882311F06620F3
S11342B049F080915309909154098E159F0529F472
S11342C0662019F081E10E94AA0160E8C6010E94FB
S11342D0F308882309F431C20BC2C6010E94591B9A
S11342E08F3F09F0CEC0C6010E94521BF82EC601B2
S11342F00E94141B20E090916C09891708F421E0B6
S1134300222309F070C0109100026AE0C6010E94E5
S11343104404FC011187F394F08680916C09863182
S113432009F043C0C6010E94141B20916C09622F3E
S11343300E942E32492F9217C0F5992359F4809187
S1134340FB059927019666E170E00E944E32809346
S1134350FB0526C08091FB05242F280F312D311D2C
S1134360F901C90166E170E00E944E329C01220FFE
S1134370331F2557364FCF01019666E170E00E9446
S11343804E32FC01EE0FFF1FE557F64F80819181FD
S1134390F901918380834F5F80916C094817D0F2B3
S11343A080916C09815080936C098091FB05F09099
S11343B06C098F0D912D911D66E170E00E944E32C3
S11343C08C01000F111F0557164FC6010E94071BD1
S11343D0F8018083C6010E94EF1BF8018183F394E6
S11343E0F0926C094EC0C6010E94141B20E090910B
S11343F06C09891708F421E02223D9F0C6010E9430
S1134400F61B8130B1F4C6010E94141B082F11273A
S1134410000F111F0557164FC6010E94EF1BF8012C
S11344208183F3946AE0C6010E944404FC01F0868F
S113443028C0C6010E94141B20E090916C098917C2
S113444008F421E02223E9F0C6010E94F61B882328
S1134450C1F4109100026AE0C6010E944404FC0108
S11344601187F394F086C6010E94141B082F1127AC
S1134470000F111F0557164FC6010E94EF1BF801CC
S11344808183C6010E94601B882EC6010E94E81B1E
S1134490182F1F5F6AE0C6010E9444045C01FC01FE
S11344A01183F8E2F51508F448C1C6010E94181CEE
S11344B020E090919202891708F421E0222309F068
S11344C03CC120912902822F9927982E882309F430
S11344D04EC000912702020F01509A940D3010F43F
S11344E0E02F02C0E02FED50FF27EE0FFF1FEF502B
S11344F0F74F0190F081E02DE080F1806AE0C70180
S11345000E944404FC0124814581F5018481658174
S11345103327322F22275527242B352B9927982FE1
S113452088277727862B972B2817390709F024C16A
S1134530C7010E94EF1B182FC6010E94EF1B18171A
S113454009F01AC1C7010E94E81B182FC6010E9476
S1134550E81B181709F010C1C7010E94601B182F2F
S1134560C6010E94601B181709F006C1E6C08091BD
S11345709302882399F0C6010E94CE05182FFEEEFF
S11345808F1609F0DAC0682FC6010E94C705412FB3
S1134590BC01C6010E946E1B6C01CFC080E020915B
S11345A01504222309F481E0882309F0C6C0909100
S11345B01404992309F481E0882309F0BEC09923E7
S11345C009F4BBC080918A09E82FFF27EE0FFF1F73
S11345D0EB5AF34F00811181118210829150909314
S11345E014048F5F80938A098C3011F410928A0925
S11345F00115110509F4A1C0222309F49EC080917C
S11346008803E82FFF27EE0FFF1FE250FA4FE080E8
S1134610F180118210822150209315048F5F8093C2
S113462088038C3011F410928803E114F10409F426
S113463084C08BE3F70111928A95E9F724E330E013
S1134640C20ED31E87E0F60111928A95E9F72CEC8D
S11346503FEFC20ED31EF801D182C0828FEF828356
S11346608EE18383C8010E945D07882389F5CE010A
S113467001960E944305882311F5F5018281238167
S11346809927982F88273327822B932B29813A81C6
S113469028173907A0F080E890E0A0E0B0E080930C
S11346A00D0290930E02A0930F02B09310020E9489
S11346B0BB0E6CE170E08CE190E00E94381D8091AB
S11346C0020581FD03C08FE00E94AA01670135C085
S11346D0C7010E948905C8010E94A8052EC06AE08E
S11346E0C6010E944404FC0180818078803829F549
S11346F080E890E0A0E0B0E080930D0290930E0279
S1134700A0930F02B09310020E94BB0E16C0C60104
S11347100E945E02AC018FB7F8949927209102029F
S1134720309103028FBF4217530719F04F5F5F4F59
S113473021F48FB7F89499278FBF9FB7F89480918D
S11347407409E82FFF27EE0FFF1FEC56FD4FD182AF
S1134750C0828F5F80937409833010F010927409C3
S113476080910B09815080930B09892F99278FBF62
S11347700ECB113711F7B3CF0150992009F0ADCE0C
S1134780F6CE2FBF22960FB6F894DEBF0FBECDBF74
S1134790DF91CF911F910F91FF90EF90DF90CF9019
S11347A0BF90AF909F908F907F906F905F903F905D
S11347B02F900895AF92BF92CF92DF92EF92FF9223
S11347C00F931F93CF93DF935B016C01C0E0D0E0A4
S11347D0EFEDF4E0608561FF82C120813181428187
S11347E05381E480F58006811781D601C501821BBF
S11347F0930BA40BB50B8E159F05A007B10708F406
S11348006EC160FF03C06D7F608708C02E0D3F1D21
S1134810401F511F2083318342835383C23009F4E4
S1134820A3C0C33030F4CC2359F0C13009F05DC1CA
S11348303CC0C33009F4A4C0C43009F056C1A9C0B7
S11348402091E3043091E4044091E5045091E6049E
S113485080914A0290914B02A0914C02B0914D027A
S11348600097A105B105F1F082179307A407B507D6
S1134870C9F480915202882361F42FB7F894332746
S113488080916E04816080936E042FBF8EE00E943D
S1134890AA0180E090E00E947C0780E00E94A919B0
S11348A0109252020E94F61D20C180912C0288238E
S11348B009F41BC180912D02882309F416C180914B
S11348C01109882349F581E10E94AA0180E10E942F
S11348D0AA01A0900D02B0900E02C0900F02D090D9
S11348E010028091340390913503A0913603B09166
S11348F03703A81AB90ACA0ADB0A81E080931109AE
S11349000E941A05AB01BC01A1E0EA2E96018501C3
S113491081E00E94FB04E9C080910D0290910E0297
S1134920A0910F02B0911002880F991FAA1FBB1FFC
S113493080930D0290930E02A0930F02B093100285
S11349408150904DA740B04060F080E090EDA7E02A
S1134950B0E080930D0290930E02A0930F02B093E7
S113496010020E94BB0EC1C080912C02882309F45E
S1134970BCC080912D02882309F4B7C081E106C030
S1134980809126028F7E809326028FE00E94AA01E6
S1134990ACC080911A02882309F0A7C06AE087E1BD
S11349A099E00E94C705EC018091000290910102F8
S11349B0019721F480E090E00E94A11A8091000206
S11349C090910102029721F480E090E00E94A11AE4
S11349D080917609909177090B9750F080910002AD
S11349E090910102039721F481E090E00E94A11AC2
S11349F000915309109154098FEF0F3F180711F4D8
S1134A0000E010E080E00E94F8068091000290919E
S1134A1001028983892F992788838091760990914F
S1134A2077098B83892F99278A830D83812F99276F
S1134A308C8380911C0290911D028F83892F99276A
S1134A408E838091260281FF50C0C7E1D9E064E1E2
S1134A50CE010E94B70E6AE0CE010E944404FC011C
S1134A6080910002909101028583892F9927848384
S1134A708091A1028F5F8093A102815086838EEE84
S1134A808783118210868FEF8187E0916D0AF09100
S1134A906E0A309751F1D183C08312828EE18383F1
S1134AA0CF010E945D07882301F58091260282FFD1
S1134AB005C084FD03C08FE00E94AA0110926E0A13
S1134AC010926D0A81E080931A0280917609909188
S1134AD077090196909377098093760906C0219609
S1134AE03996C530D10509F075CE87E00E94AA0138
S1134AF0DF91CF911F910F91FF90EF90DF90CF90B6
S1134B00BF90AF9008956F927F928F929F92AF92D1
S1134B10BF92CF92DF92EF92FF920F931F93CF93A6
S1134B20DF93CDB7DEB722970FB6F894DEBF0FBE82
S1134B30CDBFE82FFF27EA31F10510F00C94AB2D1F
S1134B40EA59FF4FEE0FFF1F0590F491E02D0994F1
S1134B5080918909882309F055C30C94AB2D8FB734
S1134B60F89420916E0420FD88C320E08AC320E0DD
S1134B7090914602992309F421E0222311F00C9428
S1134B80AB2D80911B02882311F00C94AB2D8091E6
S1134B904402E82FFF27EE0FFF1FE45EF94F008168
S1134BA01181222351F48F5F80934402883011F4E1
S1134BB010924402915090934602C8010E945E02F2
S1134BC07C01D8018C918D50C82EDD24BC2CC801E9
S1134BD00E945204C8010E94DC020B5F1F4F27E0B1
S1134BE0F80111922A95E9F705501040F8018087E1
S1134BF0892F99278783F8E2FC1510F40C94AB2DC8
S1134C00F801E6828F2D9927858345E04387C18685
S1134C108091370290913802892B11F00C94AB2DBE
S1134C202FB7F894332740933A0210923B02109323
S1134C3036020093350282E090E09093380280932C
S1134C40370210923D0210923C02FCE0BF0EB0927B
S1134C5039022FBF8FB7F894282F33278091F60598
S1134C608A3011F42FBF1AC02FBF9FB7F8948091D8
S1134C70D503882311F020E006C081E08093D5039A
S1134C801092D60321E0892F99278FBF222331F078
S1134C900E94700381E080931B025DC7109238026A
S1134CA01092370258C72FB7F89433278091DE0249
S1134CB08093070282E0809320022FBF8091070235
S1134CC0882309F048C78091DF029091E0020E9496
S1134CD0DD16A82EBB24AA2009F43DC780E00E945B
S1134CE01810C090DF02D090E002C6010E94520466
S1134CF0F0900B0223E02F1508F42DC7EF2DFF27AA
S1134D00EE0FFF1FE25AFB4F008111810C151D05A8
S1134D1009F021C7118210820E94A5174A2DB801FB
S1134D208F2D31C180913C0310923C03853009F0F2
S1134D30B1C0B1E0FB2EF0922C0280912D028823A9
S1134D4011F00E94720480912602846080932602EE
S1134D5090E080912902882309F491E0992319F4C1
S1134D608FE00E94AA0180914A0290914B02A09187
S1134D704C02B0914D020097A105B10529F510929E
S1134D804A0210924B0210924C0210924D02109261
S1134D904E0210924F021092500210925102109241
S1134DA0520280E00E94A9190FB7F894112780E0FD
S1134DB090E00E947C070FBF0E94F61D80E00E94D5
S1134DC0741EF092910203C080E00E94741E11E0F0
S1134DD010939A02809126028260809326028FB7F4
S1134DE0F894992720910202309103028FBF3093E7
S1134DF017062093160680912D028823B9F4109388
S1134E002D0280E890E0A0E0B0E080930D02909342
S1134E100E02A0930F02B09310020E94BB0E40E05A
S1134E2050E260E070E082E00E9407068091000298
S1134E30909101020097C9F42091530930915409CB
S1134E40109393028091160690911706909354093B
S1134E508093530910925609109255092F5F3F4FC2
S1134E6069F48FE00E94AA0109C08230910519F407
S1134E7080E090E001C001970E94A11A1092770986
S1134E801092760940E054E060E070E084E00E9413
S1134E90070661C6863031F410922C0280912602F6
S1134EA08B7FDDC2873009F456C680933C0353C61A
S1134EB02FB7F89433278091DC028F5F8093DC0254
S1134EC02FBF40913C03413081F58091C2058F5F33
S1134ED08093C205863048F52091F7053091F80596
S1134EE080913D038823C1F490E08091BF0588231D
S1134EF009F491E0992381F0309339032093380326
S1134F0040933D038BED91E10E94E6020E94090F5C
S1134F101092BB0983E004C085E08093BB0982E062
S1134F2080933C030E94C91616C610923C030E944B
S1134F30C916C090BB090091F7051091F805F80156
S1134F4082858F3309F007C680E00E941810C801DB
S1134F500E945204D0900B02F3E0FD1508F4FBC547
S1134F60ED2DFF27EE0FFF1FE25AFB4FE080F1808B
S1134F70E016F10609F0EFC5118210820E94A51710
S1134F804C2DB7018D2D0E94DA1DE5C50E94AE1E81
S1134F90E2C50E9472042FB7F89433277093FA0580
S1134FA06093F9052FBFD7C58091DA02882361F594
S1134FB0209168093091690940916A0950916B09FF
S1134FC0EFB7F894FF2760919B0270919C02809147
S1134FD09D0290919E02E090B709F090B80900916B
S1134FE0B9091091BA096E0D7F1D801F911FEFBF83
S1134FF0209368093093690940936A0950936B09B7
S11350001092DA020E9421080E941A0543C00E94ED
S11350101A055B016C018FB7F894992710927E03EF
S11350208FBFEFEFEE2EEFEFFE2EEFEF0E2FEFE739
S11350301E2F60E0EFEDF4E0808581FF1CC08081CD
S11350409181A281B381A6019501281B390B4A0BDA
S11350505B0BDA01C9012481358146815781281B04
S1135060390B4A0B5B0B2E153F05400751071CF407
S113507079018A0161E0399635E0EC30F307E1F615
S1135080662309F468C51E141F04100611062CF0CB
S1135090C601B5010E94DA235EC5E0926809F09268
S11350A0690900936A0910936B0981E08093DA021D
S11350B0A8019701C601B5010E9421084CC58FB70C
S11350C0F894992710928305109282051092700A21
S11350D010926F0A109255021092540210925B04BF
S11350E010925A0437C52FB7F8943327809192034E
S11350F080930A0282E0809321022FBF80910A02EA
S1135100882309F028C5209A289A8091710A882357
S113511009F075C08EEF91E0019701960197E1F7D0
S113512016982F9886E090E0019701960197E1F791
S1135130169A289883EC8EBD0DB407FEFDCF8EB56C
S11351401EBC0DB407FEFDCF8EB5289A289882ECBC
S11351508EBD0DB407FEFDCF8EB588E08EBD0DB4B7
S113516007FEFDCF8EB5289A8EEF91E00197019648
S11351700197E1F728988EEC8EBD0DB407FEFDCFA4
S11351808EB58DE48EBD0DB407FEFDCF8EB5289A85
S1135190289889EC8EBD0DB407FEFDCF8EB587EC43
S11351A08EBD0DB407FEFDCF8EB5289A289885ECE8
S11351B08EBD0DB407FEFDCF8EB580E88EBD0DB457
S11351C007FEFDCF8EB5289A109213048BE08093CE
S11351D0DD02289888EC8EBD0DB407FEFDCF8EB598
S11351E08BE68EBD0DB407FEFDCF8EB5289A2F9A9F
S11351F081E08093710A80E00E943606ACC40E946C
S1135200EF18A9C471E0D72EEE24FF240EE514E0B4
S1135210909189098D2D892379F0D8016D917C9124
S113522011971D921C928D2D809598239093890936
S113523043E08E2D0E94DA1D0894E11CF11C0E5FE0
S11352401F4FB8E0EB16F10409F485C4DD0CE0CF80
S113525010910B02E12FFF27EE0FFF1FE25AFB4FC5
S1135260E080F180118210820E94A51741E0B7010D
S1135270812F89CE0E9425066EC42E7F20936E0452
S113528021E099278FBF222309F465C481E090E0CF
S11352900E9454188EE03BC48091260284FD5BC4B6
S11352A090E080912902882309F491E0992309F080
S11352B052C480919302882359F420E080915309C9
S11352C0909154098F5F9F4F09F021E0222331F020
S11352D0CE0101960E944305882339F060E177E20C
S11352E080E090E00E941C1D36C4E0912702FF2755
S11352F0EE0FFF1FEF50F74FC080D180D601ED9124
S1135300FC91B0808090530990905409CF010E9481
S1135310181C20E090919202891708F421E02223BE
S113532059F00E946E05F601808191810E948905E1
S1135330C6010E94A8059FC080919302D601ED90FA
S1135340FC90882381F16AE0C7010E944404FC01B7
S1135350B780A091CE03B091CF03F7018BE3019006
S11353600D928150E1F70091CE031091CF03C80153
S11353700E94CE05F82EFEEEBF1651F4682FC80128
S11353800E94C7054F2DBC01C8010E946E1B8C01F1
S11353901093CF030093CE0360E0D6018D919C91CE
S11353A00E94561DD8C309811A816AE0C7010E9470
S11353B04404FC010383012F112702836AE0F601F0
S11353C0808191810E944404FC0180818F738083D9
S11353D0D6014D915C91DA011196FD018181FA01AA
S11353E021819927982F882733272062822B932B9A
S11353F08183892F9927FD0181838091260288600A
S11354008093260280FF0FC06AE0D6018D919C91A3
S11354100E944404FC018081806480838091260280
S11354208E7F80932602F60100811181F801868225
S1135430892D99278783C8010E945204FC0181E7C2
S11354408083F3EFBF0E4B2D5527B80182E00E94F5
S113545003189927882331F4809126028061809370
S1135460260279C3823009F076C368E2D6018D91B1
S11354709C910E94B70E8FE04AC380912E0288232C
S113548009F069C3E0918E03F0918F03108280913B
S1135490530990915409E0918E03F0918F03828314
S11354A0892F9927818380919302882329F0809101
S11354B055099091560920C080915309909154093F
S11354C00091550910915609BFEF8F3F9B0781F456
S11354D0E0918E03F0918F030483812F99278383B6
S11354E0E0918E03F0918F038081806880830CC0EB
S11354F00E942B04800F911FE0918E03F0918F0383
S11355008483892F9927838362E08FE393E00E9449
S113551044046C0168E08FE393E00E944B04F5E0DF
S1135520AF2EB12CA80EB91E40E0FF2400E010E01D
S1135530EBE08E2E912C73E0E72E80912B029927BD
S11355400196800F911F6AE070E00E944E329C0128
S11355509927889DD001899DB00D989DB00D112487
S1135560A159BB4FFD018581992780FF15C081FF9B
S113557013C08D919C911197FE9CA00111244A0D9A
S11355805B1DFA018183892F99278083FD01868120
S1135590FA018283F394422F0930110529F00F5F39
S11355A01F4FFAE0FF1548F640932B0280912A0220
S11355B08F5F80932A028150F60181838F2D8F7033
S11355C080838FEF80934503809346038FE393E0BA
S11355D00E945204FC0180E7808383E0F89EC001AE
S11355E01124895F482F55276FE373E083E00E94FD
S11355F003189927882321F481E080932E02ABC2FB
S1135600843009F0A8C210922C02A5C280919302A2
S1135610882309F0A0C2AA24BB244FEFE42EF42E61
S11356203FEF832E932ECC24DD2443C0022F112779
S113563023E0000F111F2A95E1F70D511D4FF801CA
S113564022813381FFEF2F3F3F0781F180911606BE
S1135650909117062817390749F1D8018D919C912B
S11356600E942B043C01F80164817581AC01460F52
S1135670571F208131818091530990915409A7814A
S11356802817390741F47093560960935509A0937C
S113569058094A010BC0AA2349F4F2E36F167104B6
S11356A028F44E155F0510F458017A010894C11CC2
S11356B0D11C2C2D8091A402C81608F4B7CF2FEF6B
S11356C0E2162FEFF20609F47AC03FEF83163FEF9C
S11356D0930691F080915809882341F080915509EF
S11356E0909156090A96E816F90630F0C7010F960C
S11356F08815990508F063C080917009909171092B
S1135700A0917209B09173090196A11DB11D8093F6
S1135710700990937109A0937209B09373098091F1
S11357205309909154090E9413048F3F81F0282F4C
S113573033278BE090E0289FF001299FF00D389FDC
S1135740F00D1124E159FB4F8581877F8583D501B5
S11357508D919C910E945804F501808191810E9451
S113576013048F3F41F0EBE08E9FF0011124E159C7
S1135770FB4F12861186D5018D919C91909354090B
S113578080935309F5018481958190935609809300
S11357905509878180935809C4018E199F0945973B
S11357A070F080E890E0A0E0B0E080930D02909368
S11357B00E02A0930F02B09310020E94BB0E8091C0
S11357C02F02882369F4FFEF8F16FFEF9F0641F441
S11357D02FEFE2162FEFF20619F08FE00E94AA01D4
S11357E010922F02B8C18FB7F894992720912C06F4
S11357F02093110223E0209331028FBF8091110284
S1135800882321F0813009F0A6C106C081E080938D
S113581012041092880904C08093120480938809AA
S11358200E94980398C1109212040091F4051091FB
S1135830F50580918809882319F0813049F404C062
S113584080E00E94170F07C081E00E94170F83C1F8
S1135850882309F080C198014427552760E078E542
S113586081E190E00E94613230931D0220931C027A
S113587072C18FB7F8941092740A2091F60540E033
S1135880283009F441E030E0293009F431E04423C0
S113589011F4332351F01092F605E091DD04FF2753
S11358A0EE0FFF1FED52FC4F108299278FBF442348
S11358B011F4332331F19FB7F894809175098F5F08
S11358C08093750980919103833479F42091530472
S11358D080915204821779F0822F8F5F8093530452
S11358E0863048F01092530406C0A0E0442309F423
S11358F0A1E071E002C0A0E070E0892F99278FBF7A
S113590006C0222311F0FF246DC0A0E070E08FB721
S1135910F8949927209132028FBF222341F08FB748
S1135920F89499272AE02093F6058FBF42C08FB7D9
S1135930F89499276091D3034091D5038FBF8FB713
S1135940F894282F332750E0909152048091530407
S1135950981709F451E02FBF552341F5662331F51B
S11359605FB7F89482E08093D3038FB7F894282F1D
S1135970332740E09091520480915304981709F41E
S113598041E02FBF442311F080E006C0E0915304AE
S1135990FF27EE5AFB4F82818093D40383E48093E4
S11359A091031092DD04852F99270EC04150423097
S11359B010F0FF240CC08FB7F894992725E42093A6
S11359C0910321E02093DD048FBF01E0F02E7723C3
S11359D049F08FB7F8949927A0933B028FBF88E1D1
S11359E00E94AA018FB7F894082F11278091F60519
S11359F08A3021F40E9409030FBFADC00FBFFF20FE
S1135A0009F4A9C02FB7F894332710926E0C1092A2
S1135A106D0C10928D0381E08093F6052FBF0E94D8
S1135A205C03882309F497C08FB7F894992729E079
S1135A302093F6058FBF0E9470038DC08091C10032
S1135A408F7B8093C1008091C1008F778093C100C8
S1135A501092C30510927C038091C10088608093EA
S1135A60C1008091C10080618093C1008091C10018
S1135A7080688093C1008FB7F89499271092F60537
S1135A8010923E038FBF0E94701965C087E13FC02A
S1135A908091C100877F8093C1008091C1008F7E77
S1135AA08093C10058C010923802109237028FB709
S1135AB0F89499278FBF2091350230913602809156
S1135AC03D02882309F047C010921B029091E10225
S1135AD09830A0F48091A202482F490F512D511DF6
S1135AE0FA014830510508F03897EE0FFF1FE858C7
S1135AF0F64F318320839F5F9093E10290E0809181
S1135B004602882309F491E0992329F580E00E9454
S1135B10AA0121C08FB7F8949927209140023091AF
S1135B2041024091A3028FBF8FB7F894E42FFF275F
S1135B30EE0FFF1FED5EFD4F318320832091330272
S1135B40442311F02B7F01C02D7F20933302109248
S1135B503E0299278FBF22960FB6F894DEBF0FBE80
S1135B60CDBFDF91CF911F910F91FF90EF90DF9008
S1135B70CF90BF90AF909F908F907F906F9008953B
S1135B8080916D098F3FB1F0282F3327F901E55536
S1135B90FD4F808180936D098F3F11F48093520CE7
S1135BA08FEF80832F3F31F0822F0E94832581E085
S1135BB090E0089580E090E00895CFEFD1E2DEBF59
S1135BC0CDBFFFB6F89414BE88E10FB6F894809365
S1135BD06000109260000FBE4AE150E06FEF70E089
S1135BE08BEA92E00E9408328FEF80936D098093D4
S1135BF0520C56985E9854985C9880916F008F7DF3
S1135C0080936F00209A289A279A2F980E9A169AB2
S1135C1087ED93E09093A00280939F0210928703F4
S1135C208AE58093330381E08093810080E280934E
S1135C30B60083E08093B100809184009091850048
S1135C404AE720918400309185002817390708F429
S1135C504150442311F0C901F4CF9091B2008091D6
S1135C60B2008917E1F3209184003091850090916E
S1135C70B2008091B2008917E1F380918400909181
S1135C808500821B930B409665E0969587956A95EF
S1135C90E1F790936F0980936E091092B10080919F
S1135CA0B10080938100809181008093B6001092AE
S1135CB0B20010928500109284008FEF87BB87B3E7
S1135CC086BB8091B6008571E1F70A9A099A089A11
S1135CD0129A119A109A18B88FEF87B90C981498E1
S1135CE010929500109294008091710081608093CD
